:1018A0002D2DCFB5CDB3B3F5CABCBBAFB3C9B9A667
:1018B000A1AAA1AA0D0A00A1AAA1AAB2BCB7C52FCC
:1018C000B3B7B7C0A1AAA1AA0D0A00A1AAA1AAD222
:1018D000ECB3A3D5F0B6AFA1AAA1AA0D0A00256664
:1018E000006C61745F737472203D2025730D0A00D3
:1018F0006C6E675F737472203D2025730D0A00A122
:10190000AAA1AAD3D0B5E7BBB0B4F2C0B4A1AAA132
:10191000AA0D0A00A1AAA1AAD4CBD0D0D5FDB3A309
:07192000A1AAA1AA0D0A0013
:101F8200E490016CF090016DF090016EF0D2A42209
:10152E007D017F647E0012199F7FC87E00121F1EF0
:10153E0012003C121F82120026121F927BFF7A1895
:10154E0079A0121DB7121E3D121B3D121B8F121BCE
:10155E00E1121C33121C8590016EE0601A7BFF7A3B
:10156E001879B7121DB790016EE0FD7FC87E00128C
:10157E00199FE490016EF090016DE0B4012D7BFF98
:10158E007A1879CB121DB77D057F507E0012199FF8
:10159E00E490016DF07B0190009104F0A37400F0D3
:1015AE00A37476F07A0079821211BC7B017A0179EC
:1015BE0055121D24900155E0FCA3E0FDA3E0FEA30F
:1015CE00E0FF90009174FFF0A37418F0A374DEF0A6
:1015DE00A31208187B017A00797612094C900091BB
:1015EE007401F0A37400F0A37476F07BFF7A18797F
:1015FE00E1120952900159E0FCA3E0FDA3E0FEA325
:10160E00E0FF90009174FFF0A37418F0A374DEF065
:10161E00A31208187B017A00798212094C9000916E
:10162E007401F0A37400F0A37482F07BFF7A187932
:10163E00F0120952121ED2EF60207BFF7A1879FF4A
:10164E00121DB79000917401F0A37400F0A374768C
:10165E00F07B017A0079821211BC7FF47E01121F99
:0D166E001E7BFF7A197914121DB702156555
:01167B00224C
:10167C004100CF004100D000410121004100CE00CB
:10002600759850758920758780758DFAE4F58BD2A1
:06003600ACD2AFD28E2215
:0C001600C2AC8F993099FDC299D2AC2287
:101DB7009000ABEBF0A3EAF0A3E9F09000ABE0FBF7
:101DC700A3E0FAA3E0F91206C460189000ABE0A301
:101DD700E475F001120766A9F0FA1206C4FF1200B3
:101DE7001680D89000ABE0FBA3E0FAA3E0F9E41279
:031DF700070A22B6
:0300230002192798
:0F192700C0E0C083C082C0D075D000C006C0072A
:10193600C2AC309853AF99EFB424109000CEE0704B
:101946000A9000D004F0900121E4F09000D0E06409
:101956000170359000CFE0FE04F074D12EF582E4DC
:101966003400F583EFF0B40A1F9000CFE024D1F5E0
:1019760082E43400F583E4F09000D0F09001210475
:0C198600F09000CEF0A3E4F0C298D2ACC8
:0D199200D007D006D0D0D082D083D0E03274
:061FB100AE07120016222B
:10168C006032012200000000000000000000000099
:10169C00000000000000000000000000000000003E
:1016AC00000000000000000000000000000000002E
:0A16BC00000000000000410154008E
:101F9200759A50759CFD438E1053A2EF43AF0122F8
:0F1FA200C2AC8F9BE59A30E1FB539AFDD2AC2283
:101DFA009000ABEBF0A3EAF0A3E9F09000ABE0FBB4
:101E0A00A3E0FAA3E0F91206C460189000ABE0A3BD
:101E1A00E475F001120766A9F0FA1206C4FF121F50
:101E2A00A280D89000ABE0FBA3E0FAA3E0F9E412A9
:031E3A00070A2272
:03004300021D6F2C
:0F1D6F00C0E0C083C082C0D075D000C006C007DE
:101D7E00C2ACE59A30E020AF9B900154E0FE04F037
:101D8E0074222EF582E43401F583EFF0900154E0D5
:0C1D9E00C394324002E4F0539AFED2AC31
:0D1DAA00D007D006D0D0D082D083D0E03258
:101EAA00D5FDD4DACBD1CBF7CEC0D0C72E2E2E0D8E
:101EBA000A00A1AAA1AA475053B6A8CEBBB3C9B972
:081ECA00A6A1AAA1AA0D0A00BD
:100D6A009000AEEBF0A3EAF0A3E9F0C2AC90000564
:100D7A001206DD9000ADF07F02121A7B9000AEE001
:100D8A00FBA3E0FAA3E0F98F827583001206DDFF68
:100D9A009000ADE064436003020FCFEF644160034B
:100DAA00020FCFA3E0A3E0A3E07F04121A7B900016
:100DBA00AEE0FBA3E0FAA3E0F98F82758300120686
:100DCA00DDFF9000AAE0FBA3E0FAA3E0F990000897
:100DDA00EF12071C9000AEE0FBA3E0FAA3E0F97F54
:100DEA0006121A7B9000AEE0FBA3E0FAA3E0F98FAB
:100DFA00827583001206DDFF9000AAE0FBA3E0FAE9
:100E0A00A3E0F9900009EF12071C9000AEE0FBA3E3
:100E1A00E0FAA3E0F97F03121A7B7E009000AEE0AD
:100E2A00FBA3E0FAA3E02FF9EE3AFA121AE19000D6
:100E3A00AAE0FBA3E0FAA3E0F91207DA9000AEE019
:100E4A00FBA3E0FAA3E0F97F05121A7B7E0090006B
:100E5A00AEE0FBA3E0FAA3E02FF9EE3AFA121AE1A8
:100E6A009000AAE0FBA3E0FAA3E0F99000041207BD
:100E7A00F412078AE4FBFA79C8784212024712038D
:100E8A009BAD07AC06EC120362C004C005C006C0E5
:100E9A00079000AAE0FBA3E0FAA3E0F912078AE4AC
:100EAA00FBFA79C87842120247D003D002D001D0A7
:100EBA0000120049E4FBFA79C8784212013EE4FBC9
:100ECA00FA79707842120247C004C005C006C0070A
:100EDA009000AAE0FBA3E0FAA3E0F912078AE4FB78
:100EEA00FA79C8784212024712039BAD07AC06ECA6
:100EFA00120362D003D002D001D00012004D90003C
:100F0A00AAE0FBA3E0FAA3E0F91207DA9000AAE04C
:100F1A00FBA3E0FAA3E0F99000041207AAE4FBFAA3
:100F2A0079C8784212024712039BAD07AC06EC124D
:100F3A000362C004C005C006C0079000AAE0FBA374
:100F4A00E0FAA3E0F99000041207AAE4FBFA79C8D0
:100F5A007842120247D003D002D001D000120049D1
:100F6A00E4FBFA79C8784212013EE4FBFA79707818
:100F7A0042120247C004C005C006C0079000AAE09A
:100F8A00FBA3E0FAA3E0F99000041207AAE4FBFA33
:100F9A0079C8784212024712039BAD07AC06EC12DD
:100FAA000362D003D002D001D00012004D9000AAF3
:100FBA00E0FBA3E0FAA3E0F99000041207F4D2AC34
:0A0FCA007E007F0122D2ACE4FEFF9E
:010FD40022FA
:100FD5009000BF120824000000009000C7E4F0A3B1
:100FE50004F0A3EBF0A3EAF0A3E9F09000C9E0FB5D
:100FF500A3E0FAA3E0F91206C4FF70030211AD24C1
:10100500D2B40C0040030210C290101C75F003A46A
:10101500C58325F0C583730210B80210C2021040C3
:1010250002104C02105802106402107002107C026B
:1010350010880210940210A00210AC9000C3120890
:10104500240000000080769000C31208243F800031
:1010550000806A9000C312082440000000805E9062
:1010650000C31208244040000080529000C31208BB
:10107500244080000080469000C312082440A00050
:1010850000803A9000C312082440C00000802E90D2
:1010950000C312082440E0000080229000C312081B
:1010A500244100000080169000C31208244110005E
:1010B50000800A9000C312082442380000E4FFFEB5
:1010C5007D387C429000C3E0F8A3E0F9A3E0FAA3E1
:1010D500E0FB1202E4701A9000C7F0A3F09000CC78
:1010E500F0A304F09000CAE475F001120750020F56
:1010F500F09000C7E07004A3E064017030FFFE7D4E
:10110500207C419000BFE0F8A3E0F9A3E0FAA3E05A
:10111500FB12013E9000C3E0F8A3E0F9A3E0FAA3B7
:10112500E0FB12004D9000BF120818806E9000BFC2
:10113500E0F8A3E0F9A3E0FAA3E0FBC000C001C01A
:1011450002C0039000CCE0FEA3E0FF7C007D0A1204
:10115500073EAC06AD07EC120362A804A905AA0672
:10116500AB079000C3E0FCA3E0FDA3E0FEA3E0FF16
:10117500120247D003D002D001D00012004D9000DA
:10118500BF1208189000CCE0FEA3E0FF7C007D0AAA
:1011950012073E9000CCEEF0A3EFF09000CAE47584
:1011A500F001120750020FF09000BFE0FCA3E0FD34
:0611B500A3E0FEA3E0FF31
:0111BB002211
:0B1AE1009000B1EBF0A3EAF0A3E9F0E5
:101AEC007F01121A7B9000BEEFF0E014F09000B171
:101AFC00E0F9A3E0FAA3E09000C2C9F0A3EAF0A3D6
:101B0C00E9F09000BEE0FF9000C5E4F0A3EFF07B9D
:101B1C00017A0079B4121A139000BEE024B4F58255
:101B2C00E43400F583E4F07B017A0079B4120FD52C
:011B3C002286
:0E1A7B009000BFEFF0A3EBF0A3EAF0A3E9F0B8
:101A8900E49000C4F0121F5AE49000C3F09000C320
:101A9900E0C39FEE6480F874809850399000C0E0EC
:101AA900FBA3E0FAA3E0F9A3E0F58275830012062F
:101AB900DDB42C069000C4E004F09000BFE0FD9076
:101AC90000C4E0B505079000C3E004FF229000C3FD
:071AD900E004F080B87F007B
:011AE00022E3
:101D24009000A4EBF0A3EAF0A3E9F0900121E060B5
:101D3400379000A4E0F9A3E0FAA3E09000AAC9F068
:101D4400A3EAF0A3E9F07B017A0079D1120D6AEFDE
:101D54004E600CE49000CEF0900121F07F0122E46B
:0B1D64009000CEF0900121F07F0022E3
:101E3D007B017A00798E121D24EF701A7D017F14BB
:101E4D00FE12199F7BFF7A1E79AA121DB77FE87EBD
:101E5D0003121F1E80DA7BFF7A1E79BC121DB77D1F
:081E6D00017FF47E0112199FB0
:011E7500224A
:1013760041540D0A004F4B0047534DD5FDD4DACDED
:10138600ACB2BDB2A8CCD8C2CA2E2E2E0D0A00A170
:10139600AAA1AA47534DB2A8CCD8C2CACDACB2BDF9
:1013A600B3C9B9A6A1AAA1AA0D0A004154490D0ABA
:1013B6000047534DD5FDD4DACED5CAD62E2E2E0DE6
:1013C6000A00A1AAA1AA47534DCED5CAD6B3C9B918
:1013D600A6A1AAA1AA0D0A0041542B4353510D0AF6
:1013E60000D0C5BAC5D6CAC1BFD5FDD4DAB2E9D1D7
:1013F600AF2E2E2E0D0A00A1AAA1AAD0C5BAC5D617
:10140600CAC1BFCDA8B9FDA1AAA1AA0D0A0041541F
:101416002B4350494E3F0D0A005245414459005353
:10142600494DBFA8D5FDD4DABCECB2E22E2E2E0D66
:101436000A00A1AAA1AA53494DBFA8D2D1BCECB2B9
:10144600E2B5BDA1AAA1AA0D0A0041542B434F50F3
:10145600533F0D0A004348494E4100D7A2B2E1CDA1
:10146600F8C2E7D5FDD4DABCECB2E22E2E2E0D0A78
:1014760000A1AAA1AAD2D1D7A2B2E1B5BDCDF8C228
:10148600E7A1AAA1AA0D0A0041542B435343533D99
:101496002247534D220D0A0041542B435343413FEB
:1014A6000D0A0041542B434D47463D310D0A00417C
:1014B600542B434D47533D222B3836313531333388
:1014C600383439343231220D0A00B6CCD0C5D5FDB8
:1014D600D4DAB7A2CBCD2E2E2E0D0A00A1AAA1AA30
:1014E600B6CCD0C5B7A2CBCDCAA7B0DCA1AAA1AA5B
:1014F6000D0A00A1AAA1AAB6CCD0C5B7A2CBCDB37E
:10150600C9B9A6A1AAA1AA0D0A0052490041544888
:101516000D0A003132312E32383736383900333140
:081526002E3233343532370058
:1016C60060410000596F757220636172206D617907
:1016D6002062652073746F6C656E2121210D0A20CE
:1016E600687474703A2F2F7572692E616D61702E51
:1016F600636F6D2F6D61726B65723F706F73697486
:10170600696F6E3D0060350041266E616D653D4D29
:1017160079436172267372633D6D797061676526E0
:10172600636F6F7264696E6174653D776773383491
:0E1736002663616C6C6E61746976653D3100EE
:101E76009000ABEBF0A3EAF0A3E9F09000ABE0F939
:101E8600A3E0FAA3E09000B1C9F0A3EAF0A3E9F059
:101E96007B017A017922121755E94A4B60037F01CB
:041EA600227F002275
:101F6F00E4FF7F319001227430F0A3DFFCE4900195
:021F7F0054F01C
:011F8100223D
:101B3D00121F6F7BFF7A137976121DFA7BFF7A13D2
:101B4D00797B121E76EF7027121F6F7BFF7A137948
:101B5D0076121DFA7FE87E03121F1E7BFF7A137922
:101B6D007E121DB77D017F147E0012199F80CD7BE3
:101B7D00FF7A137995121DB77D017FF47E0112193D
:021B8D009F2295
:101B8F00121F6F7BFF7A1379B1121DFA7BFF7A1345
:101B9F00797B121E76EF7027121F6F7BFF7A1379F6
:101BAF00B1121DFA7FE87E03121F1E7BFF7A137995
:101BBF00B7121DB77D017F147E0012199F80CD7B58
:101BCF00FF7A1379C8121DB77D017FF47E011219B8
:021BDF009F2243
:101BE100121F6F7BFF7A1379DE121DFA7BFF7A13C6
:101BF100797B121E76EF7027121F6F7BFF7A1379A4
:101C0100DE121DFA7FE87E03121F1E7BFF7A137915
:101C1100E7121DB77D017F147E0012199F80CD7BD5
:101C2100FF7A1379FD121DB77D017FF47E01121930
:021C31009F22F0
:101C3300121F6F7BFF7A147914121DFA7BFF7A143B
:101C4300791F121E76EF7027121F6F7BFF7A1479AC
:101C530014121DFA7FE87E03121F1E7BFF7A14798C
:101C630025121DB77D017F147E0012199F80CD7B45
:101C7300FF7A147938121DB77D017FF47E011219A2
:021C83009F229E
:101C8500121F6F7BFF7A147950121DFA7BFF7A14AD
:101C9500795B121E76EF7027121F6F7BFF7A14791E
:101CA50050121DFA7FE87E03121F1E7BFF7A1479FE
:101CB50061121DB77D017F147E0012199F80CD7BB7
:101CC500FF7A147977121DB77D017FF47E01121911
:021CD5009F224C
:0B11BC0090008EEBF0A3EAF0A3E9F036
:1011C700E4900094F0FFA304F078967C00FD7BFF89
:1011D7007A1579197E007F0B12069E78A17C007D17
:1011E700017BFF7A1579247E007F0A12069EE4FFB1
:1011F70090008EE0FBA3E0FAA3E0F98F82758300ED
:101207001206DDFE74962FF582E43400F583EEF0C6
:10121700900091E0FBA3E0FAA3E0F98F82758300C9
:101227001206DDFE74A12FF582E43400F583EEF09B
:101237000FEFB40ABB121F6F7BFF7A14798E121D52
:10124700FA7F207E03121F1E7D017F0A7E0012197E
:101257009F7BFF7A14799E121DFA7F207E03121F4F
:101267001E7D017F0A7E0012199F7BFF7A1479A9E0
:10127700121DFA7F207E03121F1E7D017F0A7E004A
:1012870012199F7BFF7A1479B5121DFA7F207E030E
:10129700121F1E7D017F0A7E0012199F7B017A00B3
:1012A7007900121DFA7F647E00121F1E7B017A00EF
:1012B7007996121DFA7F647E00121F1E7F2C121F63
:1012C700A27F647E00121F1E7B017A0079A1121D86
:1012D700FA7F647E00121F1E7B017A007941121D7E
:1012E700FA7F207E03121F1E7D017F0A7E001219DE
:1012F7009F121F6F7F1A121FA27F207E03121F1ECD
:101307007D017F0A7E0012199F7BFF7A13797B127A
:101317001E76EF702E121F6F900094E004F07F206E
:101327007E03121F1E7BFF7A1479D0121DB77D0131
:101337007F0A7E0012199F900094E0D3941440C94D
:10134700E4A3F0900095E070137BFF7A1479E21222
:101357001DB77D027FF47E0112199F227BFF7A144D
:0E13670079F9121DB77D017FF47E0112199FE6
:011375002255
:101ED2007BFF7A157910121E76EF60167FB87E0BA3
:101EE200121F1E7BFF7A157913121DFA121F6F7FC4
:081EF2000122121F6F7F002284
:1017440041016C0041016D0041016E0041016B00DB
:0B199F009000ABEEF0A3EFF0A3EDF022
:1019AA00E4A3F0A3F09000ADE0FFC39000AFE09F86
:1019BA009000AEE094005050E49000B0F0A3F09094
:1019CA0000ABE0FEA3E0FFC39000B1E09F9000B03F
:1019DA00E09E5019B2A57F027E00121F1E9000B130
:1019EA00E004F070069000B0E004F080D29000AB02
:1019FA00E0FEA3E0FF121F1E9000AFE004F07006A5
:081A0A009000AEE004F0809DA5
:011A120022B1
:0D000600EF6005D288D2A822C288C2A822CD
:07003C00D28AD2AAD2AF2242
:03001300021CD7F5
:101CD700C0E0C083C082C0D075D000C00790016C3F
:101CE700E070047F0180027F0090016CEFF0BF017C
:101CF7000FC2A490016E7402F07F011200068012D9
:101D070090016CE0700CD2A490016E04F0E4FF1215
:0D1D17000006D007D0D0D082D083D0E032BB
:03000300021EFAE0
:081EFA00C0E0C083C082C0D02B
:101F020090016BE004F0E0D394054007E4F0900107
:031F12006D04F06B
:091F1500D0D0D082D083D0E0329C
:101F1E00D3EF9400EE940040147DF47C01ED1D701F
:0D1F2E00011CED4C70F7EF1F70011E80E3E9
:011F3B002283
:101F3C00D3EF9400EE940040147D6E7C00ED1D7088
:0D1F4C00011CED4C70F7EF1F70011E80E3CB
:011F59002265
:10004600020407E86480F8E933E83360110460F0DD
:10005600ED33EC337009E8FCE9FDEAFEEBFF220420
:1000660060DED3EB9FEA9EE99DE8C2E78CF0C2F71B
:1000760095F0400CE8CCF8E9CDF9EACEFAEBCFFBE7
:100086001203D285D0F05804700320D5B3E804706B
:10009600075002B2D502041192D5EC0460F7E4CC05
:1000A600C0E0C398F8603B94186008400DD0E0FBB0
:1000B6000203E9E4FBFAC9FC8028E830E406E4C957
:1000C600FBE4CAFCE830E305E4C9CACBFCE8540704
:1000D6006010F8C3E913F9EA13FAEB13FBEC13FC0F
:1000E600D8F130F52FC3E49CFCEF9BFFEE9AFEEDB2
:1000F60099FDD0E0FBEF4E4D4C701222DB0302045B
:100106000EEC2CFCEF33FFEE33FEED33FDED30E766
:10011600EB0203E9EF2BFFEE3AFEED39FDD0E0FBF3
:1001260050130BBB0003020411ED13FDEE13FEEF9B
:0801360013FFEC13FC0203E9C6
:10013E00EC4D6011E8497017ED33EC3304600DE4BB
:10014E00FCFFFEFD22E933E8330470F802040712C7
:10015E0003D258046009E4CC2481500628500902C9
:10016E00041128400302040EC0E0EB4A7044B9802B
:10017E0006D0E0FB0203FDEF4E701CBD8008EBFFC6
:10018E00EAFEE9FD80EBE98DF0A4FEE5F002022720
:10019E00E9CDF9EAFEEBFFEF89F0A4FCE5F0CE899C
:1001AE00F0A42EFFE435F0CD89F0A42DFEE435F059
:1001BE008067EF4E7005BD80D780C3EF8BF0A4AC87
:1001CE00F0EE8BF0A42CFCE435F0F8EF8AF0A42CC2
:1001DE00E5F038FCE433CB8DF0A42CFCE5F03BF8D5
:1001EE00EE8AF0A42CFCE5F038F8E433CF89F0A4C5
:1001FE002CFCE5F038CF3400CE89F0A42FFFE5F0CB
:10020E003EFEE433C98DF0A42EFEE5F039CD8AF022
:10021E00A42FFFE5F03EFEE43DFD33D0E0FB50079A
:10022E000BBB000F020411EC2CFCEF33FFEE33FE80
:06023E00ED33FD0203E9AF
:10024400020411EC5D046005E8590470030204071C
:100254001203D2580460F6EC4860F2EC7004FDFE20
:10026400FF22C860DB2481C85009C398600250068D
:1002740002040E9850CAF582E9294B4A7005AB82F4
:100284000203FD75F0007C1A7880C3EF9BEE9AEDB3
:1002940099400DC3EF9BFFEE9AFEED99FDE842F005
:1002A400DC23ACF0D0E0FFD0E0FED0E0FDAB822058
:1002B400E7101BEB60BAEC2CFCEF33FFEE33FEEDE2
:1002C40033FD0203E9E803F830E705C0F075F000F8
:1002D400EF2FFFEE33FEED33FD40B830E7C280AAC6
:1002E40074F8CC6480CCC86480C8F58204604FC3C1
:1002F400EB9FF5F0EA9E42F0E99D42F0E89C45F060
:10030400603C501DE5825FFFE582D313CB5BCBF4E9
:100314002B5582FB50280ABA002409B90020088012
:100324001DE5825BFBE582D313CF5FCFF4C3132FAC
:100334005582FF50090EBE00050DBD00010CC3EB34
:100344009FF5F0EA9E42F0E99D42F0E89C45F0609A
:0903540007CC4820E701B3EC22BC
:10035D0075F020800E75F010800575F0087D007E1B
:10036D00007F003392D530D50312077CEC3340105B
:10037D00EF33FFEE33FEED33FDEC33FCD5F0ED2224
:0E038D00E5F0247EA2D513CC92E7CDCEFF2260
:10039B00EDD2E7CD33EC3392D524814006E4FFFE5A
:1003AB00FDFC22FCE4CFCECDCC24E0501174FF80B9
:1003BB00EDC3CC13CCCD13CDCE13CECF13CF047056
:0703CB00F030D5DE02077CD3
:1008E700E5082491F582E43400F583E005082290B9
:1008F700008E300703900091E475F001120855024D
:1009070006C42000E97F2ED2008018EF540F2490F0
:10091700D43440D4FF30040BEF24BFB41A00500383
:100927002461FFE50960021509050CE50C70020555
:100937000B30070E90008EE475F001120855EF0298
:10094700070A021FB17403D2078003E4C207F50840
:1009570090008E12086CE4F509F50BF50CE50960BB
:10096700077F2012092A80F5750AFFC201C200C25B
:1009770002C203C205C206C2081208F6FF700D3094
:1009870007057F0012093BAF0CAE0B22B4255FC2EF
:10099700D5C2041208F6FF24D0B40A00501A75F025
:1009A7000A780930D50508B6FF0106C6A426F62041
:1009B700D5047002D20380D924CFB41A00EF5004B3
:1009C700C2E5D204020C2DD20180C6D20080C0D26B
:1009D7000280BCD2D580BAD20580B47F2012092A02
:1009E7002002077401B5090040F11208E7FF120958
:1009F7002A020964D208D20680951208E7FB12087A
:100A0700E7FA1208E7F94A4B7006792B7A0D7BFF54
:100A170020022EE509602A7E008E82758300120669
:100A2700DD60060EEE650A70F0C2D5EBC0E0EAC0E5
:100A3700E0E9C0E0EE120C8ED0E0F9D0E0FAD0E0A9
:100A4700FB1206C4FF60AAEBC0E0EAC0E0E9C0E021
:100A570012092AD0E02401F9D0E03400FAD0E0FBF3
:100A6700E50A0460DCD50AD98087D20280A2120C7D
:100A77007060F7E50A70010412041CA90A600DE50D
:100A87000A600914F50A120D18EF60F3EA30E7025D
:100A9700F404C3995079EAF4250A0430E701E40421
:100AA700F50A800D120C7060C1EA050A250A1204C6
:100AB7001CEA9000BDF030E701E4250A04D50A04DA
:100AC70020050114120C8EE4C0E0120D189000BD31
:100AD700E0601320E70714F0120912802204F0D017
:100AE700E014C0E07F00120912E50A600712090945
:100AF700150A800B300503120909D0E0020964D0FA
:100B0700E00480C4120C70609EE50A0412041C9075
:100B170000BDEAF0E50A2005026001042404120C76
:010B27008E3F
:100B280074FF04C0E0120D18120912E50A2005022C
:100B38006003120909D0E0B50AE87F4512091C9044
:100B480000BDE07F2B30E7047F2DF404C0E01209DC
:100B58002AD0E075F00A84C0F0120913D0E0120917
:100B680013020964791080027908C206C208800855
:100B7800D2D5790A8004790AC2D5E50A047002F54B
:100B88000AE4FAFDFEFF1208E7FC7B0820011312B5
:100B980008E7FD7B1030000A1208E7FE1208E7FF9D
:100BA8007B20EC3382D592D55013C3E43000069FE6
:100BB800FFE49EFEE42001039DFDE49CFCE4CBF8E9
:100BC800C201EC700CCFCECDCCE824F8F870F380DD
:100BD80017C3EF33FFEE33FEED33FDEC33FCEB339D
:100BE800FB994002FB0FD8E9EB300105F8D0E0C4CF
:100BF80048B201C0E00AEC4D4E4F78207B0070C22D
:100C0800EAB50A0040BCC0E0120C90D0F0D0E02059
:100C18000104C4C0E0C4B201C0F0120913D0F0D579
:100C2800F0EB0209641208750A01530B6C5809D2DB
:100C38004C09CE420B704F0B78440B784909E743B7
:100C48000B7E550AAB460B0B450A75470D4B5009F1
:100C5800D62D09DA2E09FD2B09DE2309FB200D34D8
:100C68002A099648000009F5E50AB4FF03750A0643
:100C78001208E7FC1208E7FD1208E7FE1208E7FF72
:100C88009000B6020459790AA2D520031430050948
:100C9800B910020404B9080104A2D52006025001C3
:100CA800042002689202B509005034C0E07F203069
:100CB80003197F30A20272067205500F120CE7C2A8
:100CC80002C206C205C2087F30800F300503E9C0A2
:100CD800E012092A300503D0E0F9D0E0B509CC309C
:100CE80005177F30B9100C12092A7F583004077F86
:100CF800788003B9080312092A3002057F2D0209FA
:100D08002A7F202008F87F2B2006F322920280CF2A
:100D18007F00B40700500B24B6F582E43400F58355
:100D2800E0FF22286E756C6C2900D2011208E730AA
:100D380001F8C201780930D50108F60209962D504C
:100D48004349581208E72403B405004001E4900D14
:100D5800469312091B743A12091BD203750904023F
:020D68000B6C12
:1003D200E9D2E7C933E833F892D5EDD2E7CD33EC71
:0703E20033FC5002B2D522EA
:1003E900EC30E7100FBF000C0EBE00080DBD000475
:1003F9000BEB6014A2D5EB13FCED92E7FD2274FF21
:10040900FCFDFEFF22E480F8A2D574FF13FC7D8079
:03041900E480EF8D
:10041C00F920E73624F950037907E4F42402FBE5CC
:10042C0082158270021583DBF6E024FB501BE96019
:10043C0014E4F0E582158270021583E004F0B40A2E
:0D044C0008E4F0D9EE7401F00A22C2D522B6
:10045900ED33EC3392D5FA602AB4FF33EDC2E77B72
:10046900FF60067A04797EE4227A04798720D5042C
:100479007A047982224E614E002B494E46002D495D
:100489004E4600E47A08F0A3DAFC7B00740722C028
:1004990083C082ECC0E0EDC0E0EEC0E0EFC0E0EA6E
:1004A90075F010A4CAABF075F04DA42BFBE435F040
:1004B900FCEA2410FAEB34C5FBEC34D9FCEDC2E7B5
:1004C900FF75F056A4F42411C5F0F434C58FF0A4D7
:1004D9002AE5F03BE43CF020E71412058ED0E0FF5A
:1004E900D0E0FED0E0FDD0E0FC1202478014F40415
:1004F90012058ED0E0FFD0E0FED0E0FDD0E0FC1286
:10050900013ED082D083E0FAEDD2E7CD33EC33243B
:1005190082FBE4C3CF33CFCE33CECD33CD33DBF340
:100529007B0775F00A846004F0A31B0AE5F0F0A3C9
:100539008FF0740AA4FFACF08EF0740AA42CFEAC00
:10054900F050010C8DF0740AA42CFDE435F0F0A3F1
:05055900DBDE74072247
:10055E003F8000004120000042C80000447A0000A5
:10056E00461C400047C35000497424004B18968027
:10057E004CBEBC205A0E1BCA6753C21C749DC5AE1E
:10058E00FB60065407601C23231205BCEB54386035
:10059E00091205A81205B712013EECF8EDF9EEFAB4
:1005AE00EFCB22EB1205B780F1543803241C9005D3
:1005BE005EFE93FC0EEE93FD0EEE930ECE93FF2297
:03000000021814CF
:0C181400787FE4F6D8FD75812102185B96
:1005CE00E709F608DFFA8046E709F208DFFA803E0F
:1005DE0088828C83E709F0A3DFFA8032E309F608FC
:1005EE00DFFA8078E309F208DFFA807088828C8364
:1005FE00E309F0A3DFFA806489828A83E0A3F60818
:10060E00DFFA805889828A83E0A3F208DFFA804CF1
:10061E0080D280FA80C680D4806980F280338010C8
:10062E0080A680EA809A80A880DA80E280CA803331
:10063E0089828A83ECFAE493A3C8C582C8CCC583A9
:10064E00CCF0A3C8C582C8CCC583CCDFE9DEE78079
:10065E000D89828A83E493A3F608DFF9ECFAA9F0F8
:10066E00EDFB2289828A83ECFAE0A3C8C582C8CC4E
:10067E00C583CCF0A3C8C582C8CCC583CCDFEADE67
:10068E00E880DB89828A83E493A3F208DFF980CCC9
:10069E0088F0EF60010E4E60C388F0ED2402B404C2
:1006AE000050B9F582EB2402B4040050AF23234569
:0606BE00822390061E736A
:1006C400BB010689828A83E0225002E722BBFE0234
:0906D400E32289828A83E4932267
:1006DD00BB010CE58229F582E5833AF583E02250D2
:1006ED0006E92582F8E622BBFE06E92582F8E2221C
:0D06FD00E58229F582E5833AF583E4932236
:10070A00BB010689828A83F0225002F722BBFE01CE
:02071A00F322C8
:10071C00F8BB010DE58229F582E5833AF583E8F013
:10072C00225006E92582C8F622BBFE05E92582C8BF
:02073C00F222A7
:10073E00EF8DF0A4A8F0CF8CF0A428CE8DF0A42ECF
:02074E00FE2289
:10075000C5F0F8A3E028F0C5F0F8E5821582700234
:060760001583E038F022D1
:10076600A3F8E0C5F025F0F0E58215827002158346
:06077600E0C838F0E822A3
:0E077C00C3E49FFFE49EFEE49DFDE49CFC228E
:10078A00BB010789828A830208A75005E9F8020893
:10079A009BBBFE05E9F80208B389828A830208BF77
:1007AA00BB010DE58229F582E5833AF5830208A7A4
:1007BA005007E92582F802089BBBFE07E92582F863
:1007CA000208B3E58229F582E5833AF5830208BF78
:1007DA00BB010789828A830208185005E9F80208D2
:0A07EA00CFBBFE05E9F80208DB2290
:1007F400BB010DE58229F582E5833AF583020818E9
:100804005007E92582F80208CFBBFE07E92582F8E4
:040814000208DB22D9
:0C081800ECF0A3EDF0A3EEF0A3EFF02253
:10082400A8828583F0D083D08212083B12083B1241
:10083400083B12083BE473E493A3C583C5F0C58366
:10084400C8C582C8F0A3C583C5F0C583C8C582C81E
:010854002281
:10085500F8E0FBA3A3E0F925F0F0E582158270022C
:070865001583E0FA38F022D0
:09086C00EBF0A3EAF0A3E9F0228D
:10087500D083D082F8E4937012740193700DA3A312
:1008850093F8740193F5828883E473740293686026
:06089500EFA3A3A380DF26
:101A13009000BFEBF0A3EAF0A3E9F0E49000C7F075
:101A2300A3F09000C574FFF5F012076645F0603C23
:101A33009000C2E0FBA3E0FAA3E0F91206C4FF9012
:101A430000BFE0FBA3E0FAA3E0F99000C7E475F060
:101A53000112076685F082F583EF12071CEF60C25F
:101A63009000C3E475F00112075080B69000BFE008
:081A7300FBA3E0FAA3E0F92255
:101F5A00E4FFFE1206C4600C0FEF70010E09E9706F
:051F6A00F20A80EF22E5
:101755009000AEEBF0A3EAF0A3E9F0A3E0FBA3E071
:10176500FAA3E0F91206C470030218019000AEE076
:10177500FBA3E0FAA3E0F91206C4700302180D906A
:1017850000B1E0F9A3E0FAA3E0A3C9F0A3EAF0A34E
:10179500E9F09000AEA3E0FAA3E0F99000B7EBF012
:1017A500A3EAF0A3E9F09000B4E0FBA3E0FAA3E01C
:1017B500F91206C4FF60269000B7E0FBA3E0FAA388
:1017C500E0F91206C46F70159000B575F0011207A7
:1017D500509000B8E475F00112075080C99000B42C
:1017E500E0FBA3E0FAA3E0F91206C47002800D90B5
:1017F50000AFE475F0011207500217719000AEE0DA
:0F180500FBA3E0FAA3E0F9227B007A007900222E
:1018200002152EE493A3F8E493A34003F68001F29B
:1018300008DFF48029E493A3F85407240CC8C333C9
:10184000C4540F4420C8834004F456800146F6DF98
:10185000E4800B010204081020408090167CE47E96
:10186000019360BCA3FF543F30E509541FFEE4938D
:10187000A360010ECF54C025E060A840B8E493A354
:10188000FAE493A3F8E493A3C8C582C8CAC583CA7F
:10189000F0A3C8C582C8CAC583CADFE9DEE780BE37
:011754000094
:0C089B00E6FC08E6FD08E6FE08E6FF2289
:0C08A700E0FCA3E0FDA3E0FEA3E0FF22C4
:0C08B300E2FC08E2FD08E2FE08E2FF2281
:1008BF00E493FC740193FD740293FE740393FF227F
:0C08CF00ECF608EDF608EEF608EFF62255
:0C08DB00ECF208EDF208EEF208EFF22259
:00000001FF
