:1018F6002D2DCFB5CDB3B3F5CABCBBAFB3C9B9A611
:10190600A1AAA1AA0D0A00A1AAA1AAB2BCB7C52F75
:10191600B3B7B7C0A1AAA1AA0D0A00A1AAA1AAD2CB
:10192600ECB3A3D5F0B6AFA1AAA1AA0D0A0025660D
:10193600006C61745F737472203D2025730D0A007C
:101946006C6E675F737472203D2025730D0A00A1CB
:10195600AAA1AAD3D0B5E7BBB0B4F2C0B4A1AAA1DC
:10196600AA0D0A00A1AAA1AAD4CBD0D0D5FDB3A3B3
:07197600A1AAA1AA0D0A00BD
:101FD800E49001A5F09001A6F09001A7F0D2A42208
:101543007D017F647E001219F57FC87E00121F742F
:1015530012003C121FD8120026121FE87BFF7A18D4
:1015630079F6121E0D121E93121B93121BE5121C09
:1015730037121C89121CDB9001A7E0601A7BFF7AEB
:1015830019790D121E0D9001A7E0FD7FC87E001290
:1015930019F5E49001A7F09001A6E0B4012F7BFFB9
:1015A3007A197921121E0D7D057F507E001219F5DF
:1015B300E49001A6F07B019000CB04F0A37400F04B
:1015C300A374AFF07A0079BB7F011211BC7B017A5F
:1015D30001798E121D7A90018EE0FCA3E0FDA3E059
:1015E300FEA3E0FF9000CA74FFF0A37419F0A37484
:1015F30034F0A31208187B017A0079AF12094C90DA
:1016030000CA7401F0A37400F0A374AFF07BFF7AF7
:10161300197937120952900192E0FCA3E0FDA3E08F
:10162300FEA3E0FF9000CA74FFF0A37419F0A37443
:1016330034F0A31208187B017A0079BB12094C908D
:1016430000CA7401F0A37400F0A374BBF07BFF7AAB
:10165300197946120952121F28EF60227BFF7A196B
:101663007955121E0D9000CB7401F0A37400F0A302
:1016730074AFF07B017A0079BBE4FF1211BC7FF4F5
:101683007E01121F747BFF7A19796A121E0D0215EF
:011693007ADC
:011694002233
:10169500410108004101090041015A0041010700CB
:10002600759850758920758780758DFAE4F58BD2A1
:06003600ACD2AFD28E2215
:0C001600C2AC8F993099FDC299D2AC2287
:101E0D009000E5EBF0A3EAF0A3E9F09000E5E0FB2C
:101E1D00A3E0FAA3E0F91206C460189000E5E0A370
:101E2D00E475F001120766A9F0FA1206C4FF12005C
:101E3D001680D89000E5E0FBA3E0FAA3E0F9E412E8
:031E4D00070A225F
:0300230002197D42
:0F197D00C0E0C083C082C0D075D000C006C007D4
:10198C00C2AC309853AF99EFB42410900107E070BB
:10199C000A90010904F090015AE4F0900109E06406
:1019AC00017035900108E0FE04F0740A2EF582E413
:1019BC003401F583EFF0B40A1F900108E0240AF516
:1019CC0082E43401F583E4F0900109F090015A04AB
:0C19DC00F0900107F0A3E4F0C298D2AC38
:0D19E800D007D006D0D0D082D083D0E0321E
:06200700AE0712001622D4
:1016A5006032015B00000000000000000000000047
:1016B5000000000000000000000000000000000025
:1016C5000000000000000000000000000000000015
:0A16D50000000000000041018D003C
:101FE800759A50759CFD438E1053A2EF43AF0122A2
:0F1FF800C2AC8F9BE59A30E1FB539AFDD2AC222D
:101E50009000E5EBF0A3EAF0A3E9F09000E5E0FBE9
:101E6000A3E0FAA3E0F91206C460189000E5E0A32D
:101E7000E475F001120766A9F0FA1206C4FF121FFA
:101E8000F880D89000E5E0FBA3E0FAA3E0F9E412C3
:031E9000070A221C
:03004300021DC5D6
:0F1DC500C0E0C083C082C0D075D000C006C00788
:101DD400C2ACE59A30E020AF9B90018DE0FE04F0A8
:101DE400745B2EF582E43401F583EFF090018DE00D
:0C1DF400C394324002E4F0539AFED2ACDB
:0D1E0000D007D006D0D0D082D083D0E03201
:101F0000D5FDD4DACBD1CBF7CEC0D0C72E2E2E0D37
:101F10000A00A1AAA1AA475053B6A8CEBBB3C9B91B
:081F2000A6A1AAA1AA0D0A0066
:100D6A009000E7EBF0A3EAF0A3E9F0C2AC9000052B
:100D7A001206DD9000E6F07F02121AD19000E7E039
:100D8A00FBA3E0FAA3E0F98F827583001206DDFF68
:100D9A009000E6E064436003020FCFEF6441600312
:100DAA00020FCFA3E0A3E0A3E07F04121AD19000C0
:100DBA00E7E0FBA3E0FAA3E0F98F8275830012064D
:100DCA00DDFF9000E3E0FBA3E0FAA3E0F99000085E
:100DDA00EF12071C9000E7E0FBA3E0FAA3E0F97F1B
:100DEA0006121AD19000E7E0FBA3E0FAA3E0F98F1C
:100DFA00827583001206DDFF9000E3E0FBA3E0FAB0
:100E0A00A3E0F9900009EF12071C9000E7E0FBA3AA
:100E1A00E0FAA3E0F97F03121AD17E009000E7E01E
:100E2A00FBA3E0FAA3E02FF9EE3AFA121B3790007F
:100E3A00E3E0FBA3E0FAA3E0F91207DA9000E7E0A7
:100E4A00FBA3E0FAA3E0F97F05121AD17E00900015
:100E5A00E7E0FBA3E0FAA3E02FF9EE3AFA121B3718
:100E6A009000E3E0FBA3E0FAA3E0F9900004120784
:100E7A00F412078AE4FBFA79C8784212024712038D
:100E8A009BAD07AC06EC120362C004C005C006C0E5
:100E9A00079000E3E0FBA3E0FAA3E0F912078AE473
:100EAA00FBFA79C87842120247D003D002D001D0A7
:100EBA0000120049E4FBFA79C8784212013EE4FBC9
:100ECA00FA79707842120247C004C005C006C0070A
:100EDA009000E3E0FBA3E0FAA3E0F912078AE4FB3F
:100EEA00FA79C8784212024712039BAD07AC06ECA6
:100EFA00120362D003D002D001D00012004D90003C
:100F0A00E3E0FBA3E0FAA3E0F91207DA9000E3E0DA
:100F1A00FBA3E0FAA3E0F99000041207AAE4FBFAA3
:100F2A0079C8784212024712039BAD07AC06EC124D
:100F3A000362C004C005C006C0079000E3E0FBA33B
:100F4A00E0FAA3E0F99000041207AAE4FBFA79C8D0
:100F5A007842120247D003D002D001D000120049D1
:100F6A00E4FBFA79C8784212013EE4FBFA79707818
:100F7A0042120247C004C005C006C0079000E3E061
:100F8A00FBA3E0FAA3E0F99000041207AAE4FBFA33
:100F9A0079C8784212024712039BAD07AC06EC12DD
:100FAA000362D003D002D001D00012004D9000E3BA
:100FBA00E0FBA3E0FAA3E0F99000041207F4D2AC34
:0A0FCA007E007F0122D2ACE4FEFF9E
:010FD40022FA
:100FD5009000F812082400000000900100E4F0A33E
:100FE50004F0A3EBF0A3EAF0A3E9F0900102E0FB23
:100FF500A3E0FAA3E0F91206C4FF70030211AD24C1
:10100500D2B40C0040030210C290101C75F003A46A
:10101500C58325F0C583730210B80210C2021040C3
:1010250002104C02105802106402107002107C026B
:1010350010880210940210A00210AC9000FC120857
:10104500240000000080769000FC1208243F8000F8
:1010550000806A9000FC12082440000000805E9029
:1010650000FC1208244040000080529000FC120849
:10107500244080000080469000FC12082440A00017
:1010850000803A9000FC12082440C00000802E9099
:1010950000FC12082440E0000080229000FC1208A9
:1010A500244100000080169000FC12082441100025
:1010B50000800A9000FC12082442380000E4FFFE7C
:1010C5007D387C429000FCE0F8A3E0F9A3E0FAA3A8
:1010D500E0FB1202E4701A900100F0A3F090010504
:1010E500F0A304F0900103E475F001120750020F1C
:1010F500F0900100E07004A3E064017030FFFE7D14
:10110500207C419000F8E0F8A3E0F9A3E0FAA3E021
:10111500FB12013E9000FCE0F8A3E0F9A3E0FAA37E
:10112500E0FB12004D9000F8120818806E9000F850
:10113500E0F8A3E0F9A3E0FAA3E0FBC000C001C01A
:1011450002C003900105E0FEA3E0FF7C007D0A12CA
:10115500073EAC06AD07EC120362A804A905AA0672
:10116500AB079000FCE0FCA3E0FDA3E0FEA3E0FFDD
:10117500120247D003D002D001D00012004D9000DA
:10118500F8120818900105E0FEA3E0FF7C007D0A37
:1011950012073E900105EEF0A3EFF0900103E47510
:1011A500F001120750020FF09000F8E0FCA3E0FDFB
:0611B500A3E0FEA3E0FF31
:0111BB002211
:0B1B37009000EAEBF0A3EAF0A3E9F055
:101B42007F01121AD19000F7EFF0E014F09000EA52
:101B5200E0F9A3E0FAA3E09000FBC9F0A3EAF0A346
:101B6200E9F09000F7E0FF9000FEE4F0A3EFF07BD5
:101B7200017A0079ED121A699000F7E024EDF582FE
:101B8200E43400F583E4F07B017A0079ED120FD59D
:011B92002230
:0E1AD1009000F8EFF0A3EBF0A3EAF0A3E9F029
:101ADF00E49000FDF0121FB0E49000FCF09000FCC9
:101AEF00E0C39FEE6480F874809850399000F9E05D
:101AFF00FBA3E0FAA3E0F9A3E0F5827583001206D9
:101B0F00DDB42C069000FDE004F09000F8E0FD90AD
:101B1F0000FDE0B505079000FCE004FF229000FCFB
:071B2F00E004F080B87F0024
:011B3600228C
:101D7A009000DDEBF0A3EAF0A3E9F090015AE060ED
:101D8A00379000DDE0F9A3E0FAA3E09000E3C9F0A0
:101D9A00A3EAF0A3E9F07B017A01790A120D6AEF4E
:101DAA004E600CE4900107F090015AF07F0122E4A2
:0B1DBA00900107F090015AF07F00221A
:101E93007B017A0079C7121D7AEF701A7D017F14D6
:101EA300FE1219F57BFF7A1F7900121E0D7FE87E63
:101EB30003121F7480DA7BFF7A1F7912121E0D7DC5
:081EC300017FF47E011219F504
:011ECB0022F4
:10138B0041540D0A004F4B0047534DD5FDD4DACDD8
:10139B00ACB2BDB2A8CCD8C2CA2E2E2E0D0A00A15B
:1013AB00AAA1AA47534DB2A8CCD8C2CACDACB2BDE4
:1013BB00B3C9B9A6A1AAA1AA0D0A004154490D0AA5
:1013CB000047534DD5FDD4DACED5CAD62E2E2E0DD1
:1013DB000A00A1AAA1AA47534DCED5CAD6B3C9B903
:1013EB00A6A1AAA1AA0D0A0041542B4353510D0AE1
:1013FB0000D0C5BAC5D6CAC1BFD5FDD4DAB2E9D1C2
:10140B00AF2E2E2E0D0A00A1AAA1AAD0C5BAC5D601
:10141B00CAC1BFCDA8B9FDA1AAA1AA0D0A0041540A
:10142B002B4350494E3F0D0A00524541445900533E
:10143B00494DBFA8D5FDD4DABCECB2E22E2E2E0D51
:10144B000A00A1AAA1AA53494DBFA8D2D1BCECB2A4
:10145B00E2B5BDA1AAA1AA0D0A0041542B434F50DE
:10146B00533F0D0A004348494E4100D7A2B2E1CD8C
:10147B00F8C2E7D5FDD4DABCECB2E22E2E2E0D0A63
:10148B0000A1AAA1AAD2D1D7A2B2E1B5BDCDF8C213
:10149B00E7A1AAA1AA0D0A0041542B435343533D84
:1014AB002247534D220D0A0041542B435343413FD6
:1014BB000D0A0041542B434D47463D310D0A004167
:1014CB00542B434D47533D222B3836313533313373
:1014DB00323839363532220D0A00B6CCD0C5D5FD9F
:1014EB00D4DAB7A2CBCD2E2E2E0D0A00A1AAA1AA1B
:1014FB00B6CCD0C5B7A2CBCDCAA7B0DCA1AAA1AA46
:10150B000D0A00A1AAA1AAB6CCD0C5B7A2CBCDB368
:10151B00C9B9A6A1AAA1AA0D0A0052490041544873
:10152B000D0A003132312E3238373638390033312B
:08153B002E3233343532370043
:1016DF0060410000596F757220636172206D6179EE
:1016EF002062652073746F6C656E2121210D0A20B5
:1016FF00687474703A2F2F7572692E616D61702E38
:10170F00636F6D2F6D61726B65723F706F7369746C
:10171F00696F6E3D0060390041596F7572206361CA
:10172F007220697320686572653A0D0A20687474B7
:10173F00703A2F2F7572692E616D61702E636F6D08
:10174F002F6D61726B65723F706F736974696F6E25
:10175F003D006035007A266E616D653D4D794361C0
:10176F0072267372633D6D797061676526636F6F63
:10177F007264696E6174653D77677338342663618F
:0B178F006C6C6E61746976653D310082
:101ECC009000E5EBF0A3EAF0A3E9F09000E5E0F96F
:101EDC00A3E0FAA3E09000EBC9F0A3EAF0A3E9F0C9
:101EEC007B017A01795B1217ABE94A4B60037F01E6
:041EFC00227F00221F
:101FC500E4FF7F3190015B7430F0A3DFFCE4900106
:021FD5008DF08D
:011FD70022E7
:101B9300121FC57BFF7A13798B121E507BFF7A13BA
:101BA3007990121ECCEF7027121FC57BFF7A137931
:101BB3008B121E507FE87E03121F747BFF7A13790A
:101BC30093121E0D7D017F147E001219F580CD7BCB
:101BD300FF7A1379AA121E0D7D017FF47E0112197B
:021BE300F522E9
:101BE500121FC57BFF7A1379C6121E507BFF7A132D
:101BF5007990121ECCEF7027121FC57BFF7A1379DF
:101C0500C6121E507FE87E03121F747BFF7A13797C
:101C1500CC121E0D7D017F147E001219F580CD7B3F
:101C2500FF7A1379DD121E0D7D017FF47E011219F5
:021C3500F52296
:101C3700121FC57BFF7A1379F3121E507BFF7A13AD
:101C47007990121ECCEF7027121FC57BFF7A13798C
:101C5700F3121E507FE87E03121F747BFF7A1379FD
:101C6700FC121E0D7D017F147E001219F580CD7BBD
:101C7700FF7A147912121E0D7D017FF47E0112196D
:021C8700F52244
:101C8900121FC57BFF7A147929121E507BFF7A1423
:101C99007934121ECCEF7027121FC57BFF7A147995
:101CA90029121E507FE87E03121F747BFF7A147974
:101CB9003A121E0D7D017F147E001219F580CD7B2D
:101CC900FF7A14794D121E0D7D017FF47E011219E0
:021CD900F522F2
:101CDB00121FC57BFF7A147965121E507BFF7A1495
:101CEB007970121ECCEF7027121FC57BFF7A147907
:101CFB0065121E507FE87E03121F747BFF7A1479E6
:101D0B0076121E0D7D017F147E001219F580CD7B9E
:101D1B00FF7A14798C121E0D7D017FF47E0112194E
:021D2B00F5229F
:0E11BC009000C7EFF0A3EBF0A3EAF0A3E9F078
:1011CA00E49000CEF0FFA304F078D07C00FD7BFF12
:1011DA007A15792E7E007F0B12069E78DB7C007DC5
:1011EA00017BFF7A1579397E007F0A12069EE4FF99
:1011FA009000C8E0FBA3E0FAA3E0F98F82758300B0
:10120A001206DDFE74D02FF582E43400F583EEF089
:10121A009000CBE0FBA3E0FAA3E0F98F827583008C
:10122A001206DDFE74DB2FF582E43400F583EEF05E
:10123A000FEFB40ABB121FC57BFF7A1479A3121EE3
:10124A00507F207E03121F747D017F0A7E001219CF
:10125A00F57BFF7A1479B3121E507F207E03121F8A
:10126A00747D017F0A7E001219F57BFF7A1479BE1C
:10127A00121E507F207E03121F747D017F0A7E009A
:10128A001219F57BFF7A1479CA121E507F207E0349
:10129A00121F747D017F0A7E001219F59000C7E0C3
:1012AA00B4010B7B017A007900121E5080097B0180
:1012BA007A007941121E507F647E00121F747B01EE
:1012CA007A0079D0121E507F647E00121F747F2C20
:1012DA00121FF87F647E00121F747B017A0079DB8B
:1012EA00121E507F647E00121F747B017A00797A85
:1012FA00121E507F207E03121F747D017F0A7E001A
:10130A001219F5121FC57F1A121FF87F207E0312C9
:10131A001F747D017F0A7E001219F57BFF7A13790B
:10132A0090121ECCEF702E121FC59000CEE004F072
:10133A007F207E03121F747BFF7A1479E5121E0D3B
:10134A007D017F0A7E001219F59000CEE0D3941435
:10135A0040C9E4A3F09000CFE070137BFF7A1479C0
:10136A00F7121E0D7D027FF47E011219F5227BFF12
:10137A007A15790E121E0D7D017FF47E011219F580
:01138A002240
:101F28007BFF7A157925121ECCEF60167FB87E0BE1
:101F3800121F747BFF7A157928121E50121FC57F55
:081F48000122121FC57F0022D7
:10179A004101A5004101A6004101A7004101A400A1
:0B19F5009000E5EEF0A3EFF0A3EDF092
:101A0000E4A3F0A3F09000E7E0FFC39000E9E09FBB
:101A10009000E8E094005050E49000EAF0A3F090C9
:101A200000E5E0FEA3E0FFC39000EBE09F9000EA3A
:101A3000E09E5019B2A57F027E00121F749000EB49
:101A4000E004F070069000EAE004F080D29000E537
:101A5000E0FEA3E0FF121F749000E9E004F07006BE
:081A60009000E8E004F0809D15
:011A6800225B
:0D000600EF6005D288D2A822C288C2A822CD
:07003C00D28AD2AAD2AF2242
:03001300021D2D9E
:101D2D00C0E0C083C082C0D075D000C0079001A5AF
:101D3D00E070047F0180027F009001A5EFF0BF01EC
:101D4D000FC2A49001A77402F07F01120006801249
:101D5D009001A5E0700CD2A49001A704F0E4FF124D
:0D1D6D000006D007D0D0D082D083D0E03265
:03000300021F5089
:081F5000C0E0C083C082C0D0D4
:101F58009001A4E004F0E0D394054007E4F0900178
:031F6800A604F0DC
:091F6B00D0D0D082D083D0E03246
:101F7400D3EF9400EE940040147DF47C01ED1D70C9
:0D1F8400011CED4C70F7EF1F70011E80E393
:011F9100222D
:101F9200D3EF9400EE940040147D6E7C00ED1D7032
:0D1FA200011CED4C70F7EF1F70011E80E375
:011FAF00220F
:10004600020407E86480F8E933E83360110460F0DD
:10005600ED33EC337009E8FCE9FDEAFEEBFF220420
:1000660060DED3EB9FEA9EE99DE8C2E78CF0C2F71B
:1000760095F0400CE8CCF8E9CDF9EACEFAEBCFFBE7
:100086001203D285D0F05804700320D5B3E804706B
:10009600075002B2D502041192D5EC0460F7E4CC05
:1000A600C0E0C398F8603B94186008400DD0E0FBB0
:1000B6000203E9E4FBFAC9FC8028E830E406E4C957
:1000C600FBE4CAFCE830E305E4C9CACBFCE8540704
:1000D6006010F8C3E913F9EA13FAEB13FBEC13FC0F
:1000E600D8F130F52FC3E49CFCEF9BFFEE9AFEEDB2
:1000F60099FDD0E0FBEF4E4D4C701222DB0302045B
:100106000EEC2CFCEF33FFEE33FEED33FDED30E766
:10011600EB0203E9EF2BFFEE3AFEED39FDD0E0FBF3
:1001260050130BBB0003020411ED13FDEE13FEEF9B
:0801360013FFEC13FC0203E9C6
:10013E00EC4D6011E8497017ED33EC3304600DE4BB
:10014E00FCFFFEFD22E933E8330470F802040712C7
:10015E0003D258046009E4CC2481500628500902C9
:10016E00041128400302040EC0E0EB4A7044B9802B
:10017E0006D0E0FB0203FDEF4E701CBD8008EBFFC6
:10018E00EAFEE9FD80EBE98DF0A4FEE5F002022720
:10019E00E9CDF9EAFEEBFFEF89F0A4FCE5F0CE899C
:1001AE00F0A42EFFE435F0CD89F0A42DFEE435F059
:1001BE008067EF4E7005BD80D780C3EF8BF0A4AC87
:1001CE00F0EE8BF0A42CFCE435F0F8EF8AF0A42CC2
:1001DE00E5F038FCE433CB8DF0A42CFCE5F03BF8D5
:1001EE00EE8AF0A42CFCE5F038F8E433CF89F0A4C5
:1001FE002CFCE5F038CF3400CE89F0A42FFFE5F0CB
:10020E003EFEE433C98DF0A42EFEE5F039CD8AF022
:10021E00A42FFFE5F03EFEE43DFD33D0E0FB50079A
:10022E000BBB000F020411EC2CFCEF33FFEE33FE80
:06023E00ED33FD0203E9AF
:10024400020411EC5D046005E8590470030204071C
:100254001203D2580460F6EC4860F2EC7004FDFE20
:10026400FF22C860DB2481C85009C398600250068D
:1002740002040E9850CAF582E9294B4A7005AB82F4
:100284000203FD75F0007C1A7880C3EF9BEE9AEDB3
:1002940099400DC3EF9BFFEE9AFEED99FDE842F005
:1002A400DC23ACF0D0E0FFD0E0FED0E0FDAB822058
:1002B400E7101BEB60BAEC2CFCEF33FFEE33FEEDE2
:1002C40033FD0203E9E803F830E705C0F075F000F8
:1002D400EF2FFFEE33FEED33FD40B830E7C280AAC6
:1002E40074F8CC6480CCC86480C8F58204604FC3C1
:1002F400EB9FF5F0EA9E42F0E99D42F0E89C45F060
:10030400603C501DE5825FFFE582D313CB5BCBF4E9
:100314002B5582FB50280ABA002409B90020088012
:100324001DE5825BFBE582D313CF5FCFF4C3132FAC
:100334005582FF50090EBE00050DBD00010CC3EB34
:100344009FF5F0EA9E42F0E99D42F0E89C45F0609A
:0903540007CC4820E701B3EC22BC
:10035D0075F020800E75F010800575F0087D007E1B
:10036D00007F003392D530D50312077CEC3340105B
:10037D00EF33FFEE33FEED33FDEC33FCD5F0ED2224
:0E038D00E5F0247EA2D513CC92E7CDCEFF2260
:10039B00EDD2E7CD33EC3392D524814006E4FFFE5A
:1003AB00FDFC22FCE4CFCECDCC24E0501174FF80B9
:1003BB00EDC3CC13CCCD13CDCE13CECF13CF047056
:0703CB00F030D5DE02077CD3
:1008E700E50824CAF582E43400F583E00508229080
:1008F70000C73007039000CAE475F00112085502DB
:1009070006C42000E97F2ED2008018EF540F2490F0
:10091700D43440D4FF30040BEF24BFB41A00500383
:100927002461FFE50960021509050CE50C70020555
:100937000B30070E9000C7E475F001120855EF025F
:10094700070A0220077403D2078003E4C207F508E9
:100957009000C712086CE4F509F50BF50CE5096082
:10096700077F2012092A80F5750AFFC201C200C25B
:1009770002C203C205C206C2081208F6FF700D3094
:1009870007057F0012093BAF0CAE0B22B4255FC2EF
:10099700D5C2041208F6FF24D0B40A00501A75F025
:1009A7000A780930D50508B6FF0106C6A426F62041
:1009B700D5047002D20380D924CFB41A00EF5004B3
:1009C700C2E5D204020C2DD20180C6D20080C0D26B
:1009D7000280BCD2D580BAD20580B47F2012092A02
:1009E7002002077401B5090040F11208E7FF120958
:1009F7002A020964D208D20680951208E7FB12087A
:100A0700E7FA1208E7F94A4B7006792B7A0D7BFF54
:100A170020022EE509602A7E008E82758300120669
:100A2700DD60060EEE650A70F0C2D5EBC0E0EAC0E5
:100A3700E0E9C0E0EE120C8ED0E0F9D0E0FAD0E0A9
:100A4700FB1206C4FF60AAEBC0E0EAC0E0E9C0E021
:100A570012092AD0E02401F9D0E03400FAD0E0FBF3
:100A6700E50A0460DCD50AD98087D20280A2120C7D
:100A77007060F7E50A70010412041CA90A600DE50D
:100A87000A600914F50A120D18EF60F3EA30E7025D
:100A9700F404C3995079EAF4250A0430E701E40421
:100AA700F50A800D120C7060C1EA050A250A1204C6
:100AB7001CEA9000F6F030E701E4250A04D50A04A1
:100AC70020050114120C8EE4C0E0120D189000F6F8
:100AD700E0601320E70714F0120912802204F0D017
:100AE700E014C0E07F00120912E50A600712090945
:100AF700150A800B300503120909D0E0020964D0FA
:100B0700E00480C4120C70609EE50A0412041C9075
:100B170000F6EAF0E50A2005026001042404120C3D
:010B27008E3F
:100B280074FF04C0E0120D18120912E50A2005022C
:100B38006003120909D0E0B50AE87F4512091C9044
:100B480000F6E07F2B30E7047F2DF404C0E01209A3
:100B58002AD0E075F00A84C0F0120913D0E0120917
:100B680013020964791080027908C206C208800855
:100B7800D2D5790A8004790AC2D5E50A047002F54B
:100B88000AE4FAFDFEFF1208E7FC7B0820011312B5
:100B980008E7FD7B1030000A1208E7FE1208E7FF9D
:100BA8007B20EC3382D592D55013C3E43000069FE6
:100BB800FFE49EFEE42001039DFDE49CFCE4CBF8E9
:100BC800C201EC700CCFCECDCCE824F8F870F380DD
:100BD80017C3EF33FFEE33FEED33FDEC33FCEB339D
:100BE800FB994002FB0FD8E9EB300105F8D0E0C4CF
:100BF80048B201C0E00AEC4D4E4F78207B0070C22D
:100C0800EAB50A0040BCC0E0120C90D0F0D0E02059
:100C18000104C4C0E0C4B201C0F0120913D0F0D579
:100C2800F0EB0209641208750A01530B6C5809D2DB
:100C38004C09CE420B704F0B78440B784909E743B7
:100C48000B7E550AAB460B0B450A75470D4B5009F1
:100C5800D62D09DA2E09FD2B09DE2309FB200D34D8
:100C68002A099648000009F5E50AB4FF03750A0643
:100C78001208E7FC1208E7FD1208E7FE1208E7FF72
:100C88009000EF020459790AA2D52003143005090F
:100C9800B910020404B9080104A2D52006025001C3
:100CA800042002689202B509005034C0E07F203069
:100CB80003197F30A20272067205500F120CE7C2A8
:100CC80002C206C205C2087F30800F300503E9C0A2
:100CD800E012092A300503D0E0F9D0E0B509CC309C
:100CE80005177F30B9100C12092A7F583004077F86
:100CF800788003B9080312092A3002057F2D0209FA
:100D08002A7F202008F87F2B2006F322920280CF2A
:100D18007F00B40700500B24EFF582E43400F5831C
:100D2800E0FF22286E756C6C2900D2011208E730AA
:100D380001F8C201780930D50108F60209962D504C
:100D48004349581208E72403B405004001E4900D14
:100D5800469312091B743A12091BD203750904023F
:020D68000B6C12
:1003D200E9D2E7C933E833F892D5EDD2E7CD33EC71
:0703E20033FC5002B2D522EA
:1003E900EC30E7100FBF000C0EBE00080DBD000475
:1003F9000BEB6014A2D5EB13FCED92E7FD2274FF21
:10040900FCFDFEFF22E480F8A2D574FF13FC7D8079
:03041900E480EF8D
:10041C00F920E73624F950037907E4F42402FBE5CC
:10042C0082158270021583DBF6E024FB501BE96019
:10043C0014E4F0E582158270021583E004F0B40A2E
:0D044C0008E4F0D9EE7401F00A22C2D522B6
:10045900ED33EC3392D5FA602AB4FF33EDC2E77B72
:10046900FF60067A04797EE4227A04798720D5042C
:100479007A047982224E614E002B494E46002D495D
:100489004E4600E47A08F0A3DAFC7B00740722C028
:1004990083C082ECC0E0EDC0E0EEC0E0EFC0E0EA6E
:1004A90075F010A4CAABF075F04DA42BFBE435F040
:1004B900FCEA2410FAEB34C5FBEC34D9FCEDC2E7B5
:1004C900FF75F056A4F42411C5F0F434C58FF0A4D7
:1004D9002AE5F03BE43CF020E71412058ED0E0FF5A
:1004E900D0E0FED0E0FDD0E0FC1202478014F40415
:1004F90012058ED0E0FFD0E0FED0E0FDD0E0FC1286
:10050900013ED082D083E0FAEDD2E7CD33EC33243B
:1005190082FBE4C3CF33CFCE33CECD33CD33DBF340
:100529007B0775F00A846004F0A31B0AE5F0F0A3C9
:100539008FF0740AA4FFACF08EF0740AA42CFEAC00
:10054900F050010C8DF0740AA42CFDE435F0F0A3F1
:05055900DBDE74072247
:10055E003F8000004120000042C80000447A0000A5
:10056E00461C400047C35000497424004B18968027
:10057E004CBEBC205A0E1BCA6753C21C749DC5AE1E
:10058E00FB60065407601C23231205BCEB54386035
:10059E00091205A81205B712013EECF8EDF9EEFAB4
:1005AE00EFCB22EB1205B780F1543803241C9005D3
:1005BE005EFE93FC0EEE93FD0EEE930ECE93FF2297
:0300000002186A79
:0C186A00787FE4F6D8FD7581210218B1EA
:1005CE00E709F608DFFA8046E709F208DFFA803E0F
:1005DE0088828C83E709F0A3DFFA8032E309F608FC
:1005EE00DFFA8078E309F208DFFA807088828C8364
:1005FE00E309F0A3DFFA806489828A83E0A3F60818
:10060E00DFFA805889828A83E0A3F208DFFA804CF1
:10061E0080D280FA80C680D4806980F280338010C8
:10062E0080A680EA809A80A880DA80E280CA803331
:10063E0089828A83ECFAE493A3C8C582C8CCC583A9
:10064E00CCF0A3C8C582C8CCC583CCDFE9DEE78079
:10065E000D89828A83E493A3F608DFF9ECFAA9F0F8
:10066E00EDFB2289828A83ECFAE0A3C8C582C8CC4E
:10067E00C583CCF0A3C8C582C8CCC583CCDFEADE67
:10068E00E880DB89828A83E493A3F208DFF980CCC9
:10069E0088F0EF60010E4E60C388F0ED2402B404C2
:1006AE000050B9F582EB2402B4040050AF23234569
:0606BE00822390061E736A
:1006C400BB010689828A83E0225002E722BBFE0234
:0906D400E32289828A83E4932267
:1006DD00BB010CE58229F582E5833AF583E02250D2
:1006ED0006E92582F8E622BBFE06E92582F8E2221C
:0D06FD00E58229F582E5833AF583E4932236
:10070A00BB010689828A83F0225002F722BBFE01CE
:02071A00F322C8
:10071C00F8BB010DE58229F582E5833AF583E8F013
:10072C00225006E92582C8F622BBFE05E92582C8BF
:02073C00F222A7
:10073E00EF8DF0A4A8F0CF8CF0A428CE8DF0A42ECF
:02074E00FE2289
:10075000C5F0F8A3E028F0C5F0F8E5821582700234
:060760001583E038F022D1
:10076600A3F8E0C5F025F0F0E58215827002158346
:06077600E0C838F0E822A3
:0E077C00C3E49FFFE49EFEE49DFDE49CFC228E
:10078A00BB010789828A830208A75005E9F8020893
:10079A009BBBFE05E9F80208B389828A830208BF77
:1007AA00BB010DE58229F582E5833AF5830208A7A4
:1007BA005007E92582F802089BBBFE07E92582F863
:1007CA000208B3E58229F582E5833AF5830208BF78
:1007DA00BB010789828A830208185005E9F80208D2
:0A07EA00CFBBFE05E9F80208DB2290
:1007F400BB010DE58229F582E5833AF583020818E9
:100804005007E92582F80208CFBBFE07E92582F8E4
:040814000208DB22D9
:0C081800ECF0A3EDF0A3EEF0A3EFF02253
:10082400A8828583F0D083D08212083B12083B1241
:10083400083B12083BE473E493A3C583C5F0C58366
:10084400C8C582C8F0A3C583C5F0C583C8C582C81E
:010854002281
:10085500F8E0FBA3A3E0F925F0F0E582158270022C
:070865001583E0FA38F022D0
:09086C00EBF0A3EAF0A3E9F0228D
:10087500D083D082F8E4937012740193700DA3A312
:1008850093F8740193F5828883E473740293686026
:06089500EFA3A3A380DF26
:101A69009000F8EBF0A3EAF0A3E9F0E4900100F0AC
:101A7900A3F09000FE74FFF5F012076645F0603C94
:101A89009000FBE0FBA3E0FAA3E0F91206C4FF9083
:101A990000F8E0FBA3E0FAA3E0F9900100E475F097
:101AA9000112076685F082F583EF12071CEF60C209
:101AB9009000FCE475F00112075080B69000F8E040
:081AC900FBA3E0FAA3E0F922FF
:101FB000E4FFFE1206C4600C0FEF70010E09E97019
:051FC000F20A80EF228F
:1017AB009000E8EBF0A3EAF0A3E9F0A3E0FBA3E0E1
:1017BB00FAA3E0F91206C470030218579000E8E090
:1017CB00FBA3E0FAA3E0F91206C4700302186390BE
:1017DB0000EBE0F9A3E0FAA3E0A3C9F0A3EAF0A3BE
:1017EB00E9F09000E8A3E0FAA3E0F99000F1EBF048
:1017FB00A3EAF0A3E9F09000EEE0FBA3E0FAA3E08C
:10180B00F91206C4FF60269000F1E0FBA3E0FAA3F7
:10181B00E0F91206C46F70159000EF75F001120716
:10182B00509000F2E475F00112075080C99000EE61
:10183B00E0FBA3E0FAA3E0F91206C47002800D905E
:10184B0000E9E475F0011207500217C79000E8E0B9
:0F185B00FBA3E0FAA3E0F9227B007A00790022D8
:10187600021543E493A3F8E493A34003F68001F230
:1018860008DFF48029E493A3F85407240CC8C33373
:10189600C4540F4420C8834004F456800146F6DF42
:1018A600E4800B0102040810204080901695E47E27
:1018B600019360BCA3FF543F30E509541FFEE49337
:1018C600A360010ECF54C025E060A840B8E493A3FE
:1018D600FAE493A3F8E493A3C8C582C8CAC583CA29
:1018E600F0A3C8C582C8CAC583CADFE9DEE780BEE1
:0117AA00003E
:0C089B00E6FC08E6FD08E6FE08E6FF2289
:0C08A700E0FCA3E0FDA3E0FEA3E0FF22C4
:0C08B300E2FC08E2FD08E2FE08E2FF2281
:1008BF00E493FC740193FD740293FE740393FF227F
:0C08CF00ECF608EDF608EEF608EFF62255
:0C08DB00ECF208EDF208EEF208EFF22259
:00000001FF
